{
  "_format": "hh-sol-artifact-1",
  "contractName": "BiddingContract",
  "sourceName": "contracts/main.sol",
  "abi": [
    {
      "anonymous": false,
      "inputs": [
        {
          "indexed": false,
          "internalType": "uint256",
          "name": "projectId",
          "type": "uint256"
        },
        {
          "indexed": true,
          "internalType": "address payable",
          "name": "freelancer",
          "type": "address"
        },
        {
          "indexed": false,
          "internalType": "uint256",
          "name": "bidAmount",
          "type": "uint256"
        }
      ],
      "name": "BidPlaced",
      "type": "event"
    },
    {
      "anonymous": false,
      "inputs": [
        {
          "indexed": false,
          "internalType": "uint256",
          "name": "projectId",
          "type": "uint256"
        },
        {
          "indexed": true,
          "internalType": "address payable",
          "name": "freelancer",
          "type": "address"
        },
        {
          "indexed": false,
          "internalType": "uint256",
          "name": "bidAmount",
          "type": "uint256"
        }
      ],
      "name": "ProjectAssigned",
      "type": "event"
    },
    {
      "anonymous": false,
      "inputs": [
        {
          "indexed": false,
          "internalType": "uint256",
          "name": "projectId",
          "type": "uint256"
        },
        {
          "indexed": true,
          "internalType": "address payable",
          "name": "user",
          "type": "address"
        },
        {
          "indexed": false,
          "internalType": "string",
          "name": "ideaDetails",
          "type": "string"
        },
        {
          "indexed": false,
          "internalType": "uint256",
          "name": "maxAmount",
          "type": "uint256"
        }
      ],
      "name": "ProjectPosted",
      "type": "event"
    },
    {
      "inputs": [
        {
          "internalType": "uint256",
          "name": "projectId",
          "type": "uint256"
        }
      ],
      "name": "assignProject",
      "outputs": [],
      "stateMutability": "payable",
      "type": "function"
    },
    {
      "inputs": [
        {
          "internalType": "uint256",
          "name": "projectId",
          "type": "uint256"
        }
      ],
      "name": "getBidders",
      "outputs": [
        {
          "internalType": "address[]",
          "name": "",
          "type": "address[]"
        },
        {
          "internalType": "uint256[]",
          "name": "",
          "type": "uint256[]"
        }
      ],
      "stateMutability": "view",
      "type": "function"
    },
    {
      "inputs": [],
      "name": "getDetails",
      "outputs": [
        {
          "components": [
            {
              "internalType": "uint256",
              "name": "projectId",
              "type": "uint256"
            },
            {
              "internalType": "address payable",
              "name": "user",
              "type": "address"
            },
            {
              "internalType": "string",
              "name": "ideaDetails",
              "type": "string"
            },
            {
              "internalType": "uint256",
              "name": "maxAmount",
              "type": "uint256"
            },
            {
              "internalType": "uint256",
              "name": "minBid",
              "type": "uint256"
            },
            {
              "internalType": "address payable",
              "name": "freelancer",
              "type": "address"
            },
            {
              "internalType": "uint256",
              "name": "biddingEndTime",
              "type": "uint256"
            }
          ],
          "internalType": "struct BiddingContract.Project[]",
          "name": "",
          "type": "tuple[]"
        }
      ],
      "stateMutability": "view",
      "type": "function"
    },
    {
      "inputs": [
        {
          "internalType": "uint256",
          "name": "_projectId",
          "type": "uint256"
        }
      ],
      "name": "getProjectInfo",
      "outputs": [
        {
          "internalType": "uint256",
          "name": "",
          "type": "uint256"
        },
        {
          "internalType": "address",
          "name": "",
          "type": "address"
        },
        {
          "internalType": "string",
          "name": "",
          "type": "string"
        },
        {
          "internalType": "uint256",
          "name": "",
          "type": "uint256"
        },
        {
          "internalType": "uint256",
          "name": "",
          "type": "uint256"
        },
        {
          "internalType": "address",
          "name": "",
          "type": "address"
        },
        {
          "internalType": "uint256",
          "name": "",
          "type": "uint256"
        }
      ],
      "stateMutability": "view",
      "type": "function"
    },
    {
      "inputs": [
        {
          "internalType": "uint256",
          "name": "projectId",
          "type": "uint256"
        }
      ],
      "name": "placeBid",
      "outputs": [],
      "stateMutability": "payable",
      "type": "function"
    },
    {
      "inputs": [
        {
          "internalType": "uint256",
          "name": "projectId",
          "type": "uint256"
        },
        {
          "internalType": "string",
          "name": "ideaDetails",
          "type": "string"
        },
        {
          "internalType": "uint256",
          "name": "maxAmount",
          "type": "uint256"
        }
      ],
      "name": "postProject",
      "outputs": [],
      "stateMutability": "nonpayable",
      "type": "function"
    },
    {
      "inputs": [
        {
          "internalType": "uint256",
          "name": "",
          "type": "uint256"
        },
        {
          "internalType": "uint256",
          "name": "",
          "type": "uint256"
        }
      ],
      "name": "projectBidders",
      "outputs": [
        {
          "internalType": "address",
          "name": "",
          "type": "address"
        }
      ],
      "stateMutability": "view",
      "type": "function"
    },
    {
      "inputs": [
        {
          "internalType": "uint256",
          "name": "",
          "type": "uint256"
        },
        {
          "internalType": "address",
          "name": "",
          "type": "address"
        }
      ],
      "name": "projectBids",
      "outputs": [
        {
          "internalType": "uint256",
          "name": "",
          "type": "uint256"
        }
      ],
      "stateMutability": "view",
      "type": "function"
    },
    {
      "inputs": [
        {
          "internalType": "uint256",
          "name": "",
          "type": "uint256"
        }
      ],
      "name": "projects",
      "outputs": [
        {
          "internalType": "uint256",
          "name": "projectId",
          "type": "uint256"
        },
        {
          "internalType": "address payable",
          "name": "user",
          "type": "address"
        },
        {
          "internalType": "string",
          "name": "ideaDetails",
          "type": "string"
        },
        {
          "internalType": "uint256",
          "name": "maxAmount",
          "type": "uint256"
        },
        {
          "internalType": "uint256",
          "name": "minBid",
          "type": "uint256"
        },
        {
          "internalType": "address payable",
          "name": "freelancer",
          "type": "address"
        },
        {
          "internalType": "uint256",
          "name": "biddingEndTime",
          "type": "uint256"
        }
      ],
      "stateMutability": "view",
      "type": "function"
    }
  ],
  "bytecode": "0x608060405234801561001057600080fd5b50612494806100206000396000f3fe6080604052600436106100865760003560e01c806357b97cf71161005957806357b97cf7146101865780636178213f146101a25780639979ef45146101cb578063fabf5968146101e7578063fbbf93a01461022a57610086565b80631039c64d1461008b578063107046bd146100c857806313d94a001461010b5780634fa7b50714610148575b600080fd5b34801561009757600080fd5b506100b260048036038101906100ad91906116c8565b610255565b6040516100bf9190611f8a565b60405180910390f35b3480156100d457600080fd5b506100ef60048036038101906100ea919061169f565b61027a565b6040516101029796959493929190611fa5565b60405180910390f35b34801561011757600080fd5b50610132600480360381019061012d919061176b565b610384565b60405161013f9190611db6565b60405180910390f35b34801561015457600080fd5b5061016f600480360381019061016a919061169f565b6103d2565b60405161017d929190611dd1565b60405180910390f35b6101a0600480360381019061019b919061169f565b61064d565b005b3480156101ae57600080fd5b506101c960048036038101906101c49190611704565b610a1c565b005b6101e560048036038101906101e0919061169f565b610d68565b005b3480156101f357600080fd5b5061020e6004803603810190610209919061169f565b611136565b604051610221979695949392919061201b565b60405180910390f35b34801561023657600080fd5b5061023f611318565b60405161024c9190611e08565b60405180910390f35b6002602052816000526040600020602052806000526040600020600091509150505481565b60006020528060005260406000206000915090508060000154908060010160009054906101000a900473ffffffffffffffffffffffffffffffffffffffff16908060020180546102c990612317565b80601f01602080910402602001604051908101604052809291908181526020018280546102f590612317565b80156103425780601f1061031757610100808354040283529160200191610342565b820191906000526020600020905b81548152906001019060200180831161032557829003601f168201915b5050505050908060030154908060040154908060050160009054906101000a900473ffffffffffffffffffffffffffffffffffffffff16908060060154905087565b600360205281600052604060002081815481106103a057600080fd5b906000526020600020016000915091509054906101000a900473ffffffffffffffffffffffffffffffffffffffff1681565b60608060008060008581526020019081526020016000209050600081600001541415610433576040517f08c379a000000000000000000000000000000000000000000000000000000000815260040161042a90611eea565b60405180910390fd5b6000600360008681526020019081526020016000208054806020026020016040519081016040528092919081815260200182805480156104c857602002820191906000526020600020905b8160009054906101000a900473ffffffffffffffffffffffffffffffffffffffff1673ffffffffffffffffffffffffffffffffffffffff168152602001906001019080831161047e575b505050505090506000815167ffffffffffffffff811115610512577f4e487b7100000000000000000000000000000000000000000000000000000000600052604160045260246000fd5b6040519080825280602002602001820160405280156105405781602001602082028036833780820191505090505b50905060005b825181101561063e57600083828151811061058a577f4e487b7100000000000000000000000000000000000000000000000000000000600052603260045260246000fd5b602002602001015190506002600089815260200190815260200160002060008273ffffffffffffffffffffffffffffffffffffffff1673ffffffffffffffffffffffffffffffffffffffff1681526020019081526020016000205483838151811061061e577f4e487b7100000000000000000000000000000000000000000000000000000000600052603260045260246000fd5b60200260200101818152505050808061063690612349565b915050610546565b50818194509450505050915091565b60008060008381526020019081526020016000209050600073ffffffffffffffffffffffffffffffffffffffff168160050160009054906101000a900473ffffffffffffffffffffffffffffffffffffffff1673ffffffffffffffffffffffffffffffffffffffff16146106f6576040517f08c379a00000000000000000000000000000000000000000000000000000000081526004016106ed90611e2a565b60405180910390fd5b8060060154421161073c576040517f08c379a000000000000000000000000000000000000000000000000000000000815260040161073390611f0a565b60405180910390fd5b60007fffffffffffffffffffffffffffffffffffffffffffffffffffffffffffffffff905060008060036000868152602001908152602001600020905060005b81805490508110156108bd5760008282815481106107c3577f4e487b7100000000000000000000000000000000000000000000000000000000600052603260045260246000fd5b9060005260206000200160009054906101000a900473ffffffffffffffffffffffffffffffffffffffff16905060006002600089815260200190815260200160002060008373ffffffffffffffffffffffffffffffffffffffff1673ffffffffffffffffffffffffffffffffffffffff16815260200190815260200160002054905085811015610854578095508194505b6002600089815260200190815260200160002060008373ffffffffffffffffffffffffffffffffffffffff1673ffffffffffffffffffffffffffffffffffffffff16815260200190815260200160002060009055505080806108b590612349565b91505061077c565b50600073ffffffffffffffffffffffffffffffffffffffff168273ffffffffffffffffffffffffffffffffffffffff16141561092e576040517f08c379a000000000000000000000000000000000000000000000000000000000815260040161092590611eaa565b60405180910390fd5b818460050160006101000a81548173ffffffffffffffffffffffffffffffffffffffff021916908373ffffffffffffffffffffffffffffffffffffffff1602179055508284600401819055508173ffffffffffffffffffffffffffffffffffffffff166108fc85600301549081150290604051600060405180830381858888f193505050501580156109c4573d6000803e3d6000fd5b508173ffffffffffffffffffffffffffffffffffffffff167f14559fc3ceba465dacdb8682605d0a54b197675dc10232b01df41f65ecd2fab58685604051610a0d9291906120cf565b60405180910390a25050505050565b60008060008581526020019081526020016000206000015414610a74576040517f08c379a0000000000000000000000000000000000000000000000000000000008152600401610a6b90611f2a565b60405180910390fd5b6000607842610a839190612231565b905060016040518060e001604052808681526020013373ffffffffffffffffffffffffffffffffffffffff16815260200185815260200184815260200160008152602001600073ffffffffffffffffffffffffffffffffffffffff168152602001838152506000808781526020019081526020016000206000820151816000015560208201518160010160006101000a81548173ffffffffffffffffffffffffffffffffffffffff021916908373ffffffffffffffffffffffffffffffffffffffff1602179055506040820151816002019080519060200190610b679291906114dd565b50606082015181600301556080820151816004015560a08201518160050160006101000a81548173ffffffffffffffffffffffffffffffffffffffff021916908373ffffffffffffffffffffffffffffffffffffffff16021790555060c0820151816006015590509080600181540180825580915050600190039060005260206000209060070201600090919091909150600082015481600001556001820160009054906101000a900473ffffffffffffffffffffffffffffffffffffffff168160010160006101000a81548173ffffffffffffffffffffffffffffffffffffffff021916908373ffffffffffffffffffffffffffffffffffffffff1602179055506002820181600201908054610c7d90612317565b610c88929190611563565b5060038201548160030155600482015481600401556005820160009054906101000a900473ffffffffffffffffffffffffffffffffffffffff168160050160006101000a81548173ffffffffffffffffffffffffffffffffffffffff021916908373ffffffffffffffffffffffffffffffffffffffff1602179055506006820154816006015550503373ffffffffffffffffffffffffffffffffffffffff167fb4e701412281d435582085159ae952aadda6a6bae0cb178eb5f9f1b52ed08d6f858585604051610d5a93929190612091565b60405180910390a250505050565b60008060008381526020019081526020016000209050600081600001541415610dc6576040517f08c379a0000000000000000000000000000000000000000000000000000000008152600401610dbd90611f4a565b60405180910390fd5b600073ffffffffffffffffffffffffffffffffffffffff168160050160009054906101000a900473ffffffffffffffffffffffffffffffffffffffff1673ffffffffffffffffffffffffffffffffffffffff1614610e59576040517f08c379a0000000000000000000000000000000000000000000000000000000008152600401610e5090611e2a565b60405180910390fd5b8060060154421115610ea0576040517f08c379a0000000000000000000000000000000000000000000000000000000008152600401610e9790611f6a565b60405180910390fd5b3373ffffffffffffffffffffffffffffffffffffffff168160010160009054906101000a900473ffffffffffffffffffffffffffffffffffffffff1673ffffffffffffffffffffffffffffffffffffffff161415610f33576040517f08c379a0000000000000000000000000000000000000000000000000000000008152600401610f2a90611e6a565b60405180910390fd5b60003411610f76576040517f08c379a0000000000000000000000000000000000000000000000000000000008152600401610f6d90611e8a565b60405180910390fd5b60006002600084815260200190815260200160002060003373ffffffffffffffffffffffffffffffffffffffff1673ffffffffffffffffffffffffffffffffffffffff1681526020019081526020016000205490506000811480610fd957508034105b611018576040517f08c379a000000000000000000000000000000000000000000000000000000000815260040161100f90611e4a565b60405180910390fd5b346002600085815260200190815260200160002060003373ffffffffffffffffffffffffffffffffffffffff1673ffffffffffffffffffffffffffffffffffffffff1681526020019081526020016000208190555060036000848152602001908152602001600020339080600181540180825580915050600190039060005260206000200160009091909190916101000a81548173ffffffffffffffffffffffffffffffffffffffff021916908373ffffffffffffffffffffffffffffffffffffffff1602179055503373ffffffffffffffffffffffffffffffffffffffff167f0e54eff26401bf69b81b26f60bd85ef47f5d85275c1d268d84f68d6897431c4784346040516111299291906120cf565b60405180910390a2505050565b600080606060008060008060008060008a815260200190815260200160002060000154141561119a576040517f08c379a000000000000000000000000000000000000000000000000000000000815260040161119190611eca565b60405180910390fd5b600080898152602001908152602001600020600001546000808a815260200190815260200160002060010160009054906101000a900473ffffffffffffffffffffffffffffffffffffffff166000808b81526020019081526020016000206002016000808c8152602001908152602001600020600301546000808d8152602001908152602001600020600401546000808e815260200190815260200160002060050160009054906101000a900473ffffffffffffffffffffffffffffffffffffffff166000808f81526020019081526020016000206006015484805461127f90612317565b80601f01602080910402602001604051908101604052809291908181526020018280546112ab90612317565b80156112f85780601f106112cd576101008083540402835291602001916112f8565b820191906000526020600020905b8154815290600101906020018083116112db57829003601f168201915b505050505094509650965096509650965096509650919395979092949650565b60606001805480602002602001604051908101604052809291908181526020016000905b828210156114d457838290600052602060002090600702016040518060e0016040529081600082015481526020016001820160009054906101000a900473ffffffffffffffffffffffffffffffffffffffff1673ffffffffffffffffffffffffffffffffffffffff1673ffffffffffffffffffffffffffffffffffffffff1681526020016002820180546113cf90612317565b80601f01602080910402602001604051908101604052809291908181526020018280546113fb90612317565b80156114485780601f1061141d57610100808354040283529160200191611448565b820191906000526020600020905b81548152906001019060200180831161142b57829003601f168201915b5050505050815260200160038201548152602001600482015481526020016005820160009054906101000a900473ffffffffffffffffffffffffffffffffffffffff1673ffffffffffffffffffffffffffffffffffffffff1673ffffffffffffffffffffffffffffffffffffffff1681526020016006820154815250508152602001906001019061133c565b50505050905090565b8280546114e990612317565b90600052602060002090601f01602090048101928261150b5760008555611552565b82601f1061152457805160ff1916838001178555611552565b82800160010185558215611552579182015b82811115611551578251825591602001919060010190611536565b5b50905061155f91906115f0565b5090565b82805461156f90612317565b90600052602060002090601f01602090048101928261159157600085556115df565b82601f106115a257805485556115df565b828001600101855582156115df57600052602060002091601f016020900482015b828111156115de5782548255916001019190600101906115c3565b5b5090506115ec91906115f0565b5090565b5b808211156116095760008160009055506001016115f1565b5090565b600061162061161b84612129565b6120f8565b90508281526020810184848401111561163857600080fd5b6116438482856122d5565b509392505050565b60008135905061165a81612430565b92915050565b600082601f83011261167157600080fd5b813561168184826020860161160d565b91505092915050565b60008135905061169981612447565b92915050565b6000602082840312156116b157600080fd5b60006116bf8482850161168a565b91505092915050565b600080604083850312156116db57600080fd5b60006116e98582860161168a565b92505060206116fa8582860161164b565b9150509250929050565b60008060006060848603121561171957600080fd5b60006117278682870161168a565b935050602084013567ffffffffffffffff81111561174457600080fd5b61175086828701611660565b92505060406117618682870161168a565b9150509250925092565b6000806040838503121561177e57600080fd5b600061178c8582860161168a565b925050602061179d8582860161168a565b9150509250929050565b60006117b38383611809565b60208301905092915050565b60006117cb8383611cfc565b905092915050565b60006117df8383611d98565b60208301905092915050565b6117f481612299565b82525050565b61180381612299565b82525050565b61181281612287565b82525050565b61182181612287565b82525050565b600061183282612189565b61183c81856121dc565b935061184783612159565b8060005b8381101561187857815161185f88826117a7565b975061186a836121b5565b92505060018101905061184b565b5085935050505092915050565b600061189082612194565b61189a81856121ed565b9350836020820285016118ac85612169565b8060005b858110156118e857848403895281516118c985826117bf565b94506118d4836121c2565b925060208a019950506001810190506118b0565b50829750879550505050505092915050565b60006119058261219f565b61190f81856121fe565b935061191a83612179565b8060005b8381101561194b57815161193288826117d3565b975061193d836121cf565b92505060018101905061191e565b5085935050505092915050565b6000611963826121aa565b61196d818561220f565b935061197d8185602086016122e4565b6119868161241f565b840191505092915050565b600061199c826121aa565b6119a68185612220565b93506119b68185602086016122e4565b6119bf8161241f565b840191505092915050565b60006119d7601883612220565b91507f50726f6a65637420616c72656164792061737369676e656400000000000000006000830152602082019050919050565b6000611a17602183612220565b91507f42696420616d6f756e74206e6f74206c6f776572207468616e206d696e696d7560008301527f6d000000000000000000000000000000000000000000000000000000000000006020830152604082019050919050565b6000611a7d602483612220565b91507f557365722063616e6e6f7420626964206f6e207468656972206f776e2070726f60008301527f6a656374000000000000000000000000000000000000000000000000000000006020830152604082019050919050565b6000611ae3602483612220565b91507f42696420616d6f756e74206d7573742062652067726561746572207468616e2060008301527f7a65726f000000000000000000000000000000000000000000000000000000006020830152604082019050919050565b6000611b49600d83612220565b91507f4e6f2076616c69642062696473000000000000000000000000000000000000006000830152602082019050919050565b6000611b89601083612220565b91507f496e76616c696420746f6b656e204944000000000000000000000000000000006000830152602082019050919050565b6000611bc9601283612220565b91507f496e76616c69642070726f6a65637420494400000000000000000000000000006000830152602082019050919050565b6000611c09601c83612220565b91507f42696464696e6720706572696f6420686173206e6f7420656e646564000000006000830152602082019050919050565b6000611c49601683612220565b91507f50726f6a65637420616c726561647920657869737473000000000000000000006000830152602082019050919050565b6000611c89601683612220565b91507f50726f6a65637420646f6573206e6f74206578697374000000000000000000006000830152602082019050919050565b6000611cc9601883612220565b91507f42696464696e6720706572696f642068617320656e64656400000000000000006000830152602082019050919050565b600060e083016000830151611d146000860182611d98565b506020830151611d2760208601826117eb565b5060408301518482036040860152611d3f8282611958565b9150506060830151611d546060860182611d98565b506080830151611d676080860182611d98565b5060a0830151611d7a60a08601826117eb565b5060c0830151611d8d60c0860182611d98565b508091505092915050565b611da1816122cb565b82525050565b611db0816122cb565b82525050565b6000602082019050611dcb6000830184611818565b92915050565b60006040820190508181036000830152611deb8185611827565b90508181036020830152611dff81846118fa565b90509392505050565b60006020820190508181036000830152611e228184611885565b905092915050565b60006020820190508181036000830152611e43816119ca565b9050919050565b60006020820190508181036000830152611e6381611a0a565b9050919050565b60006020820190508181036000830152611e8381611a70565b9050919050565b60006020820190508181036000830152611ea381611ad6565b9050919050565b60006020820190508181036000830152611ec381611b3c565b9050919050565b60006020820190508181036000830152611ee381611b7c565b9050919050565b60006020820190508181036000830152611f0381611bbc565b9050919050565b60006020820190508181036000830152611f2381611bfc565b9050919050565b60006020820190508181036000830152611f4381611c3c565b9050919050565b60006020820190508181036000830152611f6381611c7c565b9050919050565b60006020820190508181036000830152611f8381611cbc565b9050919050565b6000602082019050611f9f6000830184611da7565b92915050565b600060e082019050611fba600083018a611da7565b611fc760208301896117fa565b8181036040830152611fd98188611991565b9050611fe86060830187611da7565b611ff56080830186611da7565b61200260a08301856117fa565b61200f60c0830184611da7565b98975050505050505050565b600060e082019050612030600083018a611da7565b61203d6020830189611818565b818103604083015261204f8188611991565b905061205e6060830187611da7565b61206b6080830186611da7565b61207860a0830185611818565b61208560c0830184611da7565b98975050505050505050565b60006060820190506120a66000830186611da7565b81810360208301526120b88185611991565b90506120c76040830184611da7565b949350505050565b60006040820190506120e46000830185611da7565b6120f16020830184611da7565b9392505050565b6000604051905081810181811067ffffffffffffffff8211171561211f5761211e6123f0565b5b8060405250919050565b600067ffffffffffffffff821115612144576121436123f0565b5b601f19601f8301169050602081019050919050565b6000819050602082019050919050565b6000819050602082019050919050565b6000819050602082019050919050565b600081519050919050565b600081519050919050565b600081519050919050565b600081519050919050565b6000602082019050919050565b6000602082019050919050565b6000602082019050919050565b600082825260208201905092915050565b600082825260208201905092915050565b600082825260208201905092915050565b600082825260208201905092915050565b600082825260208201905092915050565b600061223c826122cb565b9150612247836122cb565b9250827fffffffffffffffffffffffffffffffffffffffffffffffffffffffffffffffff0382111561227c5761227b612392565b5b828201905092915050565b6000612292826122ab565b9050919050565b60006122a4826122ab565b9050919050565b600073ffffffffffffffffffffffffffffffffffffffff82169050919050565b6000819050919050565b82818337600083830152505050565b60005b838110156123025780820151818401526020810190506122e7565b83811115612311576000848401525b50505050565b6000600282049050600182168061232f57607f821691505b60208210811415612343576123426123c1565b5b50919050565b6000612354826122cb565b91507fffffffffffffffffffffffffffffffffffffffffffffffffffffffffffffffff82141561238757612386612392565b5b600182019050919050565b7f4e487b7100000000000000000000000000000000000000000000000000000000600052601160045260246000fd5b7f4e487b7100000000000000000000000000000000000000000000000000000000600052602260045260246000fd5b7f4e487b7100000000000000000000000000000000000000000000000000000000600052604160045260246000fd5b6000601f19601f8301169050919050565b61243981612287565b811461244457600080fd5b50565b612450816122cb565b811461245b57600080fd5b5056fea26469706673582212208a8ad33b2d3833d2302c5503f2a72c904ace7bdb0b9cf8d9796b8dbf17f4a18564736f6c63430008000033",
  "linkReferences": {},
  "deployedLinkReferences": {}
}